{
  "contractName": "Election",
  "abi": [
    {
      "inputs": [],
      "payable": false,
      "stateMutability": "nonpayable",
      "type": "constructor"
    },
    {
      "anonymous": false,
      "inputs": [
        {
          "indexed": true,
          "internalType": "uint256",
          "name": "_candidateId",
          "type": "uint256"
        }
      ],
      "name": "votedEvent",
      "type": "event"
    },
    {
      "constant": true,
      "inputs": [
        {
          "internalType": "uint256",
          "name": "",
          "type": "uint256"
        }
      ],
      "name": "candidates",
      "outputs": [
        {
          "internalType": "uint256",
          "name": "id",
          "type": "uint256"
        },
        {
          "internalType": "string",
          "name": "name",
          "type": "string"
        },
        {
          "internalType": "string",
          "name": "avatar",
          "type": "string"
        },
        {
          "internalType": "uint256",
          "name": "voteCount",
          "type": "uint256"
        }
      ],
      "payable": false,
      "stateMutability": "view",
      "type": "function"
    },
    {
      "constant": true,
      "inputs": [],
      "name": "candidatesCount",
      "outputs": [
        {
          "internalType": "uint256",
          "name": "",
          "type": "uint256"
        }
      ],
      "payable": false,
      "stateMutability": "view",
      "type": "function"
    },
    {
      "constant": true,
      "inputs": [],
      "name": "totalVotes",
      "outputs": [
        {
          "internalType": "uint256",
          "name": "",
          "type": "uint256"
        }
      ],
      "payable": false,
      "stateMutability": "view",
      "type": "function"
    },
    {
      "constant": true,
      "inputs": [
        {
          "internalType": "address",
          "name": "",
          "type": "address"
        }
      ],
      "name": "voters",
      "outputs": [
        {
          "internalType": "bool",
          "name": "",
          "type": "bool"
        }
      ],
      "payable": false,
      "stateMutability": "view",
      "type": "function"
    },
    {
      "constant": false,
      "inputs": [
        {
          "internalType": "uint256",
          "name": "_candidateId",
          "type": "uint256"
        }
      ],
      "name": "vote",
      "outputs": [],
      "payable": false,
      "stateMutability": "nonpayable",
      "type": "function"
    }
  ],
  "bytecode": "0x608060405234801561001057600080fd5b5061008b6040518060400160405280600681526020017f436861796d6100000000000000000000000000000000000000000000000000008152506040518060400160405280600481526020017f75726c31000000000000000000000000000000000000000000000000000000008152506101fe60201b60201c565b6101056040518060400160405280600681526020017f57617373696d00000000000000000000000000000000000000000000000000008152506040518060400160405280600481526020017f75726c32000000000000000000000000000000000000000000000000000000008152506101fe60201b60201c565b61017f6040518060400160405280600781526020017f4f756d61796d61000000000000000000000000000000000000000000000000008152506040518060400160405280600481526020017f75726c33000000000000000000000000000000000000000000000000000000008152506101fe60201b60201c565b6101f96040518060400160405280600581526020017f416d696e650000000000000000000000000000000000000000000000000000008152506040518060400160405280600481526020017f75726c34000000000000000000000000000000000000000000000000000000008152506101fe60201b60201c565b610342565b600260008154809291906001019190505550604051806080016040528060025481526020018381526020018281526020016000815250600080600254815260200190815260200160002060008201518160000155602082015181600101908051906020019061026e92919061029d565b50604082015181600201908051906020019061028b92919061029d565b50606082015181600301559050505050565b828054600181600116156101000203166002900490600052602060002090601f016020900481019282601f106102de57805160ff191683800117855561030c565b8280016001018555821561030c579182015b8281111561030b5782518255916020019190600101906102f0565b5b509050610319919061031d565b5090565b61033f91905b8082111561033b576000816000905550600101610323565b5090565b90565b610522806103516000396000f3fe608060405234801561001057600080fd5b50600436106100575760003560e01c80630121b93f1461005c5780630d15fd771461008a5780632d35a8a2146100a85780633477ee2e146100c6578063a3ec138d146101e7575b600080fd5b6100886004803603602081101561007257600080fd5b8101908080359060200190929190505050610243565b005b610092610361565b6040518082815260200191505060405180910390f35b6100b0610367565b6040518082815260200191505060405180910390f35b6100f2600480360360208110156100dc57600080fd5b810190808035906020019092919050505061036d565b604051808581526020018060200180602001848152602001838103835286818151815260200191508051906020019080838360005b83811015610142578082015181840152602081019050610127565b50505050905090810190601f16801561016f5780820380516001836020036101000a031916815260200191505b50838103825285818151815260200191508051906020019080838360005b838110156101a857808201518184015260208101905061018d565b50505050905090810190601f1680156101d55780820380516001836020036101000a031916815260200191505b50965050505050505060405180910390f35b610229600480360360208110156101fd57600080fd5b81019080803573ffffffffffffffffffffffffffffffffffffffff1690602001909291905050506104cd565b604051808215151515815260200191505060405180910390f35b600160003373ffffffffffffffffffffffffffffffffffffffff1673ffffffffffffffffffffffffffffffffffffffff16815260200190815260200160002060009054906101000a900460ff161561029a57600080fd5b6000811180156102ac57506002548111155b6102b557600080fd5b60018060003373ffffffffffffffffffffffffffffffffffffffff1673ffffffffffffffffffffffffffffffffffffffff16815260200190815260200160002060006101000a81548160ff02191690831515021790555060008082815260200190815260200160002060030160008154809291906001019190505550807ffff3c900d938d21d0990d786e819f29b8d05c1ef587b462b939609625b684b1660405160405180910390a250565b60035481565b60025481565b6000602052806000526040600020600091509050806000015490806001018054600181600116156101000203166002900480601f01602080910402602001604051908101604052809291908181526020018280546001816001161561010002031660029004801561041f5780601f106103f45761010080835404028352916020019161041f565b820191906000526020600020905b81548152906001019060200180831161040257829003601f168201915b505050505090806002018054600181600116156101000203166002900480601f0160208091040260200160405190810160405280929190818152602001828054600181600116156101000203166002900480156104bd5780601f10610492576101008083540402835291602001916104bd565b820191906000526020600020905b8154815290600101906020018083116104a057829003601f168201915b5050505050908060030154905084565b60016020528060005260406000206000915054906101000a900460ff168156fea265627a7a72315820cf26f422b4189da7664b01fd832167b6d049fbc1a98cdf9a56c00f4d0be49fee64736f6c63430005100032",
  "source": "pragma solidity ^0.5.0;\r\n\r\ncontract Election{\r\n \r\n    struct Candidate {\r\n        uint id;\r\n        string name;\r\n        string avatar;\r\n        uint voteCount;\r\n    }\r\n  mapping(uint => Candidate) public candidates;\r\n  mapping( address => bool) public voters;\r\n  uint public candidatesCount;\r\n  uint public totalVotes;\r\n\r\n event votedEvent (\r\n        uint indexed _candidateId\r\n    );\r\n\r\n   constructor() public{\r\n     addCandidate(\"Chayma\",\"url1\");\r\n     addCandidate(\"Wassim\",\"url2\");\r\n     addCandidate(\"Oumayma\",\"url3\");\r\n     addCandidate(\"Amine\",\"url4\");\r\n\r\n }\r\n\r\n\r\n    function addCandidate (string memory _name, string memory _url) private {\r\n        candidatesCount ++;\r\n        candidates[candidatesCount] = Candidate(candidatesCount, _name, _url, 0);\r\n    }\r\n\r\n    function vote (uint _candidateId) public {\r\n        // require that they haven't voted before\r\n        require(!voters[msg.sender]);\r\n        // require a valid candidate\r\n        require(_candidateId > 0 && _candidateId <= candidatesCount);\r\n        // record that voter has voted\r\n        voters[msg.sender] = true;\r\n        // update candidate vote Count\r\n        candidates[_candidateId].voteCount ++;\r\n\r\n        emit votedEvent(_candidateId);\r\n    }\r\n}",
  "sourcePath": "C:/Users/Abir/Downloads/tpDMWM3/contracts/Election.sol",
  "compiler": {
    "name": "solc",
    "version": "0.5.16+commit.9c3226ce.Emscripten.clang"
  },
  "schemaVersion": "3.2.5",
  "updatedAt": "2020-11-09T22:25:23.260Z",
  "networkType": "ethereum",
  "devdoc": {
    "methods": {}
  },
  "userdoc": {
    "methods": {}
  }
}